Component: ARM Compiler 5.05 update 1 (build 106) Tool: armlink [4d0efa]

==============================================================================

Section Cross References

    startup_stm32f10x_md.o(RESET) refers to startup_stm32f10x_md.o(STACK) for __initial_sp
    startup_stm32f10x_md.o(RESET) refers to startup_stm32f10x_md.o(.text) for Reset_Handler
    startup_stm32f10x_md.o(RESET) refers to stm32f10x_it.o(i.NMI_Handler) for NMI_Handler
    startup_stm32f10x_md.o(RESET) refers to stm32f10x_it.o(i.HardFault_Handler) for HardFault_Handler
    startup_stm32f10x_md.o(RESET) refers to stm32f10x_it.o(i.MemManage_Handler) for MemManage_Handler
    startup_stm32f10x_md.o(RESET) refers to stm32f10x_it.o(i.BusFault_Handler) for BusFault_Handler
    startup_stm32f10x_md.o(RESET) refers to stm32f10x_it.o(i.UsageFault_Handler) for UsageFault_Handler
    startup_stm32f10x_md.o(RESET) refers to stm32f10x_it.o(i.SVC_Handler) for SVC_Handler
    startup_stm32f10x_md.o(RESET) refers to stm32f10x_it.o(i.DebugMon_Handler) for DebugMon_Handler
    startup_stm32f10x_md.o(RESET) refers to stm32f10x_it.o(i.PendSV_Handler) for PendSV_Handler
    startup_stm32f10x_md.o(RESET) refers to stm32f10x_it.o(i.SysTick_Handler) for SysTick_Handler
    startup_stm32f10x_md.o(RESET) refers to usart_1.o(i.USART1_IRQHandler) for USART1_IRQHandler
    startup_stm32f10x_md.o(.text) refers to system_stm32f10x.o(i.SystemInit) for SystemInit
    startup_stm32f10x_md.o(.text) refers to entry.o(.ARM.Collect$$$$00000000) for __main
    system_stm32f10x.o(i.SetSysClock) refers to system_stm32f10x.o(i.SetSysClockTo72) for SetSysClockTo72
    system_stm32f10x.o(i.SystemCoreClockUpdate) refers to system_stm32f10x.o(.data) for SystemCoreClock
    system_stm32f10x.o(i.SystemInit) refers to system_stm32f10x.o(i.SetSysClock) for SetSysClock
    stm32f10x_adc.o(i.ADC_DeInit) refers to stm32f10x_rcc.o(i.RCC_APB2PeriphResetCmd) for RCC_APB2PeriphResetCmd
==============================================================================

Removing Unused input sections from the image.

    Removing startup_stm32f10x_md.o(HEAP), (512 bytes).
    Removing core_cm3.o(.emb_text), (32 bytes).
    Removing system_stm32f10x.o(i.SystemCoreClockUpdate), (164 bytes).
    Removing misc.o(i.NVIC_PriorityGroupConfig), (20 bytes).
    Removing misc.o(i.NVIC_SetVectorTable), (20 bytes).
    Removing misc.o(i.NVIC_SystemLPConfig), (32 bytes).
    Removing stm32f10x_adc.o(i.ADC_AnalogWatchdogCmd), (20 bytes).
    Removing stm32f10x_adc.o(i.ADC_AnalogWatchdogSingleChannelConfig), (16 bytes).
    Removing stm32f10x_adc.o(i.ADC_AnalogWatchdogThresholdsConfig), (6 bytes).
    Removing stm32f10x_adc.o(i.ADC_AutoInjectedConvCmd), (22 bytes).
    Removing stm32f10x_adc.o(i.ADC_ClearFlag), (6 bytes).
    Removing stm32f10x_adc.o(i.ADC_ClearITPendingBit), (10 bytes).
    Removing stm32f10x_adc.o(i.ADC_Cmd), (22 bytes).
    Removing stm32f10x_adc.o(i.ADC_DMACmd), (22 bytes).
    Removing stm32f10x_adc.o(i.ADC_DeInit), (92 bytes).
    Removing stm32f10x_adc.o(i.ADC_DiscModeChannelCountConfig), (24 bytes).
    Removing stm32f10x_adc.o(i.ADC_DiscModeCmd), (22 bytes).
    Removing stm32f10x_adc.o(i.ADC_ExternalTrigConvCmd), (22 bytes).
==============================================================================

Image Symbol Table

    Local Symbols

    Symbol Name                              Value     Ov Type        Size  Object(Section)

    ../clib/microlib/init/entry.s            0x00000000   Number         0  entry8a.o ABSOLUTE
    ../clib/microlib/init/entry.s            0x00000000   Number         0  entry7a.o ABSOLUTE
    ../clib/microlib/init/entry.s            0x00000000   Number         0  entry.o ABSOLUTE
    ../clib/microlib/init/entry.s            0x00000000   Number         0  entry5.o ABSOLUTE
    ../clib/microlib/init/entry.s            0x00000000   Number         0  entry2.o ABSOLUTE
    ../clib/microlib/init/entry.s            0x00000000   Number         0  entry7b.o ABSOLUTE
    ../clib/microlib/init/entry.s            0x00000000   Number         0  entry8b.o ABSOLUTE
    ../clib/microlib/init/entry.s            0x00000000   Number         0  entry9a.o ABSOLUTE
    ../clib/microlib/init/entry.s            0x00000000   Number         0  entry9b.o ABSOLUTE
    ../clib/microlib/init/entry.s            0x00000000   Number         0  entry10a.o ABSOLUTE
    ../clib/microlib/init/entry.s            0x00000000   Number         0  entry10b.o ABSOLUTE
    ../clib/microlib/init/entry.s            0x00000000   Number         0  entry11a.o ABSOLUTE
    ../clib/microlib/init/entry.s            0x00000000   Number         0  entry11b.o ABSOLUTE
    ../clib/microlib/longlong.c              0x00000000   Number         0  llshl.o ABSOLUTE
    ../clib/microlib/longlong.c              0x00000000   Number         0  llsshr.o ABSOLUTE
    ../clib/microlib/longlong.c              0x00000000   Number         0  llushr.o ABSOLUTE
    ../clib/microlib/stubs.s                 0x00000000   Number         0  iusefp.o ABSOLUTE
    ../fplib/microlib/f2d.c                  0x00000000   Number         0  f2d.o ABSOLUTE
    ../fplib/microlib/fpadd.c                0x00000000   Number         0  dadd.o ABSOLUTE
    ../fplib/microlib/fpadd.c                0x00000000   Number         0  fadd.o ABSOLUTE
    ../fplib/microlib/fpdiv.c                0x00000000   Number         0  fdiv.o ABSOLUTE
    ../fplib/microlib/fpepilogue.c           0x00000000   Number         0  depilogue.o ABSOLUTE
    ../fplib/microlib/fpepilogue.c           0x00000000   Number         0  fepilogue.o ABSOLUTE
    ../fplib/microlib/fpfix.c                0x00000000   Number         0  dfixi.o ABSOLUTE
    ../fplib/microlib/fpfix.c                0x00000000   Number         0  ffixui.o ABSOLUTE
    ../fplib/microlib/fpflt.c                0x00000000   Number         0  ffltui.o ABSOLUTE
    ../fplib/microlib/fpflt.c                0x00000000   Number         0  fflti.o ABSOLUTE
    ../fplib/microlib/fpmul.c                0x00000000   Number         0  fmul.o ABSOLUTE
    ../mathlib/floor.c                       0x00000000   Number         0  floor.o ABSOLUTE
    ..\Board\ty_sdk\mcu_api.c                0x00000000   Number         0  mcu_api.o ABSOLUTE
    ..\Board\ty_sdk\protocol.c               0x00000000   Number         0  protocol.o ABSOLUTE
    ..\Board\ty_sdk\system.c                 0x00000000   Number         0  system.o ABSOLUTE
    ..\Board\usart\usart.c                   0x00000000   Number         0  usart_1.o ABSOLUTE
    ..\Board\ws2812\ws2812.c                 0x00000000   Number         0  ws2812.o ABSOLUTE
    ..\Chip\delay\delay.c                    0x00000000   Number         0  delay.o ABSOLUTE
    ..\Libraries\CMSIS\core_cm3.c            0x00000000   Number         0  core_cm3.o ABSOLUTE
    ..\Libraries\CMSIS\startup\startup_stm32f10x_md.s 0x00000000   Number         0  startup_stm32f10x_md.o ABSOLUTE
    ..\Libraries\CMSIS\system_stm32f10x.c    0x00000000   Number         0  system_stm32f10x.o ABSOLUTE
    ..\Libraries\STM32F10x_StdPeriph_Driver\src\misc.c 0x00000000   Number         0  misc.o ABSOLUTE
    ..\Libraries\STM32F10x_StdPeriph_Driver\src\stm32f10x_adc.c 0x00000000   Number         0  stm32f10x_adc.o ABSOLUTE
    ..\Libraries\STM32F10x_StdPeriph_Driver\src\stm32f10x_bkp.c 0x00000000   Number         0  stm32f10x_bkp.o ABSOLUTE
    ..\Libraries\STM32F10x_StdPeriph_Driver\src\stm32f10x_can.c 0x00000000   Number         0  stm32f10x_can.o ABSOLUTE
    ..\Libraries\STM32F10x_StdPeriph_Driver\src\stm32f10x_cec.c 0x00000000   Number         0  stm32f10x_cec.o ABSOLUTE
    ..\Libraries\STM32F10x_StdPeriph_Driver\src\stm32f10x_crc.c 0x00000000   Number         0  stm32f10x_crc.o ABSOLUTE
    ..\Libraries\STM32F10x_StdPeriph_Driver\src\stm32f10x_dac.c 0x00000000   Number         0  stm32f10x_dac.o ABSOLUTE
    ..\Libraries\STM32F10x_StdPeriph_Driver\src\stm32f10x_dbgmcu.c 0x00000000   Number         0  stm32f10x_dbgmcu.o ABSOLUTE
    ..\Libraries\STM32F10x_StdPeriph_Driver\src\stm32f10x_dma.c 0x00000000   Number         0  stm32f10x_dma.o ABSOLUTE
    ..\Libraries\STM32F10x_StdPeriph_Driver\src\stm32f10x_exti.c 0x00000000   Number         0  stm32f10x_exti.o ABSOLUTE
    ..\Libraries\STM32F10x_StdPeriph_Driver\src\stm32f10x_flash.c 0x00000000   Number         0  stm32f10x_flash.o ABSOLUTE
    ..\Libraries\STM32F10x_StdPeriph_Driver\src\stm32f10x_fsmc.c 0x00000000   Number         0  stm32f10x_fsmc.o ABSOLUTE
    ..\Libraries\STM32F10x_StdPeriph_Driver\src\stm32f10x_gpio.c 0x00000000   Number         0  stm32f10x_gpio.o ABSOLUTE
    ..\Libraries\STM32F10x_StdPeriph_Driver\src\stm32f10x_i2c.c 0x00000000   Number         0  stm32f10x_i2c.o ABSOLUTE
    ..\Libraries\STM32F10x_StdPeriph_Driver\src\stm32f10x_iwdg.c 0x00000000   Number         0  stm32f10x_iwdg.o ABSOLUTE
    ..\Libraries\STM32F10x_StdPeriph_Driver\src\stm32f10x_pwr.c 0x00000000   Number         0  stm32f10x_pwr.o ABSOLUTE
    ..\Libraries\STM32F10x_StdPeriph_Driver\src\stm32f10x_rcc.c 0x00000000   Number         0  stm32f10x_rcc.o ABSOLUTE
    ..\Libraries\STM32F10x_StdPeriph_Driver\src\stm32f10x_rtc.c 0x00000000   Number         0  stm32f10x_rtc.o ABSOLUTE
    ..\Libraries\STM32F10x_StdPeriph_Driver\src\stm32f10x_sdio.c 0x00000000   Number         0  stm32f10x_sdio.o ABSOLUTE
    ..\Libraries\STM32F10x_StdPeriph_Driver\src\stm32f10x_spi.c 0x00000000   Number         0  stm32f10x_spi.o ABSOLUTE
    ..\Libraries\STM32F10x_StdPeriph_Driver\src\stm32f10x_tim.c 0x00000000   Number         0  stm32f10x_tim.o ABSOLUTE
    ..\Libraries\STM32F10x_StdPeriph_Driver\src\stm32f10x_usart.c 0x00000000   Number         0  stm32f10x_usart.o ABSOLUTE
    ..\Libraries\STM32F10x_StdPeriph_Driver\src\stm32f10x_wwdg.c 0x00000000   Number         0  stm32f10x_wwdg.o ABSOLUTE
    ..\User\main.c                           0x00000000   Number         0  main.o ABSOLUTE
    ..\User\stm32f10x_it.c                   0x00000000   Number         0  stm32f10x_it.o ABSOLUTE
    ..\\Libraries\\CMSIS\\core_cm3.c         0x00000000   Number         0  core_cm3.o ABSOLUTE
    cdrcmple.s                               0x00000000   Number         0  cdrcmple.o ABSOLUTE
    cfcmple.s                                0x00000000   Number         0  cfcmple.o ABSOLUTE
    cfrcmple.s                               0x00000000   Number         0  cfrcmple.o ABSOLUTE
    dc.s                                     0x00000000   Number         0  dc.o ABSOLUTE
    handlers.s                               0x00000000   Number         0  handlers.o ABSOLUTE
    init.s                                   0x00000000   Number         0  init.o ABSOLUTE
    RESET                                    0x08000000   Section      236  startup_stm32f10x_md.o(RESET)
    .ARM.Collect$$$$00000000                 0x080000ec   Section        0  entry.o(.ARM.Collect$$$$00000000)
    .ARM.Collect$$$$00000001                 0x080000ec   Section        4  entry2.o(.ARM.Collect$$$$00000001)
    .ARM.Collect$$$$00000004                 0x080000f0   Section        4  entry5.o(.ARM.Collect$$$$00000004)
    .ARM.Collect$$$$00000008                 0x080000f4   Section        0  entry7b.o(.ARM.Collect$$$$00000008)
    .ARM.Collect$$$$0000000A                 0x080000f4   Section        0  entry8b.o(.ARM.Collect$$$$0000000A)
    .ARM.Collect$$$$0000000B                 0x080000f4   Section        8  entry9a.o(.ARM.Collect$$$$0000000B)
    .ARM.Collect$$$$0000000D                 0x080000fc   Section        0  entry10a.o(.ARM.Collect$$$$0000000D)
    .ARM.Collect$$$$0000000F                 0x080000fc   Section        0  entry11a.o(.ARM.Collect$$$$0000000F)
    .ARM.Collect$$$$00002712                 0x080000fc   Section        4  entry2.o(.ARM.Collect$$$$00002712)
    __lit__00000000                          0x080000fc   Data           4  entry2.o(.ARM.Collect$$$$00002712)
    .text                                    0x08000100   Section       36  startup_stm32f10x_md.o(.text)
    .text                                    0x08000124   Section       36  init.o(.text)
    i.BusFault_Handler                       0x08000148   Section        0  stm32f10x_it.o(i.BusFault_Handler)
    i.DMA_ClearFlag                          0x0800014c   Section        0  stm32f10x_dma.o(i.DMA_ClearFlag)
    i.DMA_Cmd                                0x08000168   Section        0  stm32f10x_dma.o(i.DMA_Cmd)
    i.DMA_DeInit                             0x08000180   Section        0  stm32f10x_dma.o(i.DMA_DeInit)
    i.DMA_Init                               0x080002cc   Section        0  stm32f10x_dma.o(i.DMA_Init)
    i.DMA_SetCurrDataCounter                 0x08000308   Section        0  stm32f10x_dma.o(i.DMA_SetCurrDataCounter)
    i.DebugMon_Handler                       0x0800030c   Section        0  stm32f10x_it.o(i.DebugMon_Handler)
    i.GPIO_Init                              0x0800030e   Section        0  stm32f10x_gpio.o(i.GPIO_Init)
    i.HardFault_Handler                      0x08000424   Section        0  stm32f10x_it.o(i.HardFault_Handler)
    i.MemManage_Handler                      0x08000428   Section        0  stm32f10x_it.o(i.MemManage_Handler)
    i.NMI_Handler                            0x0800042c   Section        0  stm32f10x_it.o(i.NMI_Handler)
    i.NVIC_Init                              0x08000430   Section        0  misc.o(i.NVIC_Init)
    i.PendSV_Handler                         0x080004a0   Section        0  stm32f10x_it.o(i.PendSV_Handler)
    i.RCC_AHBPeriphClockCmd                  0x080004a4   Section        0  stm32f10x_rcc.o(i.RCC_AHBPeriphClockCmd)
    i.RCC_APB2PeriphClockCmd                 0x080004c4   Section        0  stm32f10x_rcc.o(i.RCC_APB2PeriphClockCmd)
    i.RCC_GetClocksFreq                      0x080004e4   Section        0  stm32f10x_rcc.o(i.RCC_GetClocksFreq)
    i.SPI_Cmd                                0x080005b8   Section        0  stm32f10x_spi.o(i.SPI_Cmd)
    i.SPI_I2S_DMACmd                         0x080005d0   Section        0  stm32f10x_spi.o(i.SPI_I2S_DMACmd)
    i.SPI_Init                               0x080005e2   Section        0  stm32f10x_spi.o(i.SPI_Init)
    i.SVC_Handler                            0x0800061e   Section        0  stm32f10x_it.o(i.SVC_Handler)
    i.SetSysClock                            0x08000620   Section        0  system_stm32f10x.o(i.SetSysClock)
    SetSysClock                              0x08000621   Thumb Code     8  system_stm32f10x.o(i.SetSysClock)
    i.SetSysClockTo72                        0x08000628   Section        0  system_stm32f10x.o(i.SetSysClockTo72)
    SetSysClockTo72                          0x08000629   Thumb Code   214  system_stm32f10x.o(i.SetSysClockTo72)
    i.SysTick_CLKSourceConfig                0x08000708   Section        0  misc.o(i.SysTick_CLKSourceConfig)
    i.SysTick_Handler                        0x08000730   Section        0  stm32f10x_it.o(i.SysTick_Handler)
    i.SystemInit                             0x08000734   Section        0  system_stm32f10x.o(i.SystemInit)
    i.USART1_IRQHandler                      0x08000794   Section        0  usart_1.o(i.USART1_IRQHandler)
    i.USART_ClearFlag                        0x080007c8   Section        0  stm32f10x_usart.o(i.USART_ClearFlag)
    i.USART_GetITStatus                      0x080007da   Section        0  stm32f10x_usart.o(i.USART_GetITStatus)
    i.USART_ITConfig                         0x0800082e   Section        0  stm32f10x_usart.o(i.USART_ITConfig)
    i.USART_Init                             0x08000878   Section        0  stm32f10x_usart.o(i.USART_Init)
    i.USART_SendData                         0x08000950   Section        0  stm32f10x_usart.o(i.USART_SendData)
    i.UsageFault_Handler                     0x08000958   Section        0  stm32f10x_it.o(i.UsageFault_Handler)
    i.__scatterload_copy                     0x0800095c   Section       14  handlers.o(i.__scatterload_copy)
    i.__scatterload_null                     0x0800096a   Section        2  handlers.o(i.__scatterload_null)
    i.__scatterload_zeroinit                 0x0800096c   Section       14  handlers.o(i.__scatterload_zeroinit)
    i.__usart_GPIO_Init                      0x0800097c   Section        0  usart_1.o(i.__usart_GPIO_Init)
    i.__usart_NVIC_Init                      0x080009c0   Section        0  usart_1.o(i.__usart_NVIC_Init)
    i.__usart_USART_Init                     0x080009e0   Section        0  usart_1.o(i.__usart_USART_Init)
    i.all_data_update                        0x08000a1c   Section        0  protocol.o(i.all_data_update)
    i.byte_to_int                            0x08000a1e   Section        0  mcu_api.o(i.byte_to_int)
    i.data_handle                            0x08000a38   Section        0  system.o(i.data_handle)
    i.data_point_handle                      0x08000b1c   Section        0  system.o(i.data_point_handle)
    data_point_handle                        0x08000b1d   Thumb Code    70  system.o(i.data_point_handle)
    i.delay_init                             0x08000b68   Section        0  delay.o(i.delay_init)
    i.delay_ms                               0x08000bac   Section        0  delay.o(i.delay_ms)
    i.dp_download_bright_value_handle        0x08000bf8   Section        0  protocol.o(i.dp_download_bright_value_handle)
    dp_download_bright_value_handle          0x08000bf9   Thumb Code    40  protocol.o(i.dp_download_bright_value_handle)
    i.dp_download_colour_data_handle         0x08000c20   Section        0  protocol.o(i.dp_download_colour_data_handle)
    dp_download_colour_data_handle           0x08000c21   Thumb Code    28  protocol.o(i.dp_download_colour_data_handle)
    i.dp_download_control_data_handle        0x08000c3c   Section        0  protocol.o(i.dp_download_control_data_handle)
    dp_download_control_data_handle          0x08000c3d   Thumb Code    28  protocol.o(i.dp_download_control_data_handle)
    i.dp_download_countdown_handle           0x08000c58   Section        0  protocol.o(i.dp_download_countdown_handle)
    dp_download_countdown_handle             0x08000c59   Thumb Code    40  protocol.o(i.dp_download_countdown_handle)
    i.dp_download_do_not_disturb_handle      0x08000c80   Section        0  protocol.o(i.dp_download_do_not_disturb_handle)
    dp_download_do_not_disturb_handle        0x08000c81   Thumb Code    40  protocol.o(i.dp_download_do_not_disturb_handle)
    i.dp_download_dreamlight_scene_mode_handle 0x08000ca8   Section        0  protocol.o(i.dp_download_dreamlight_scene_mode_handle)
    dp_download_dreamlight_scene_mode_handle 0x08000ca9   Thumb Code    28  protocol.o(i.dp_download_dreamlight_scene_mode_handle)
    i.dp_download_dreamlightmic_music_data_handle 0x08000cc4   Section        0  protocol.o(i.dp_download_dreamlightmic_music_data_handle)
    dp_download_dreamlightmic_music_data_handle 0x08000cc5   Thumb Code    28  protocol.o(i.dp_download_dreamlightmic_music_data_handle)
    i.dp_download_handle                     0x08000ce0   Section        0  protocol.o(i.dp_download_handle)
    i.dp_download_lightpixel_number_set_handle 0x08000df0   Section        0  protocol.o(i.dp_download_lightpixel_number_set_handle)
    dp_download_lightpixel_number_set_handle 0x08000df1   Thumb Code    40  protocol.o(i.dp_download_lightpixel_number_set_handle)
    i.dp_download_mic_music_data_handle      0x08000e18   Section        0  protocol.o(i.dp_download_mic_music_data_handle)
    dp_download_mic_music_data_handle        0x08000e19   Thumb Code    28  protocol.o(i.dp_download_mic_music_data_handle)
    i.dp_download_music_data_handle          0x08000e34   Section        0  protocol.o(i.dp_download_music_data_handle)
    dp_download_music_data_handle            0x08000e35   Thumb Code    28  protocol.o(i.dp_download_music_data_handle)
    i.dp_download_power_memory_handle        0x08000e50   Section        0  protocol.o(i.dp_download_power_memory_handle)
    dp_download_power_memory_handle          0x08000e51   Thumb Code    28  protocol.o(i.dp_download_power_memory_handle)
    i.dp_download_scene_data_handle          0x08000e6c   Section        0  protocol.o(i.dp_download_scene_data_handle)
    dp_download_scene_data_handle            0x08000e6d   Thumb Code    28  protocol.o(i.dp_download_scene_data_handle)
    i.dp_download_sleep_mode_handle          0x08000e88   Section        0  protocol.o(i.dp_download_sleep_mode_handle)
    dp_download_sleep_mode_handle            0x08000e89   Thumb Code    28  protocol.o(i.dp_download_sleep_mode_handle)
    i.dp_download_switch_led_handle          0x08000ea4   Section        0  protocol.o(i.dp_download_switch_led_handle)
    dp_download_switch_led_handle            0x08000ea5   Thumb Code    40  protocol.o(i.dp_download_switch_led_handle)
    i.dp_download_temp_value_handle          0x08000ecc   Section        0  protocol.o(i.dp_download_temp_value_handle)
    dp_download_temp_value_handle            0x08000ecd   Thumb Code    40  protocol.o(i.dp_download_temp_value_handle)
    i.dp_download_wakeup_mode_handle         0x08000ef4   Section        0  protocol.o(i.dp_download_wakeup_mode_handle)
    dp_download_wakeup_mode_handle           0x08000ef5   Thumb Code    28  protocol.o(i.dp_download_wakeup_mode_handle)
    i.dp_download_work_mode_handle           0x08000f10   Section        0  protocol.o(i.dp_download_work_mode_handle)
    dp_download_work_mode_handle             0x08000f11   Thumb Code    68  protocol.o(i.dp_download_work_mode_handle)
    i.get_check_sum                          0x08000f54   Section        0  system.o(i.get_check_sum)
    i.get_dowmload_dpid_index                0x08000f70   Section        0  system.o(i.get_dowmload_dpid_index)
    get_dowmload_dpid_index                  0x08000f71   Thumb Code    40  system.o(i.get_dowmload_dpid_index)
    i.get_download_cmd_total                 0x08000f9c   Section        0  protocol.o(i.get_download_cmd_total)
    i.get_mcu_wifi_mode                      0x08000fa0   Section        0  system.o(i.get_mcu_wifi_mode)
    get_mcu_wifi_mode                        0x08000fa1   Thumb Code    16  system.o(i.get_mcu_wifi_mode)
    i.heat_beat_check                        0x08000fb0   Section        0  system.o(i.heat_beat_check)
    heat_beat_check                          0x08000fb1   Thumb Code    50  system.o(i.heat_beat_check)
    i.main                                   0x08000fe8   Section        0  main.o(i.main)
    i.mcu_dp_bool_update                     0x08001010   Section        0  mcu_api.o(i.mcu_dp_bool_update)
    i.mcu_dp_enum_update                     0x08001074   Section        0  mcu_api.o(i.mcu_dp_enum_update)
    i.mcu_dp_raw_update                      0x080010cc   Section        0  mcu_api.o(i.mcu_dp_raw_update)
    i.mcu_dp_string_update                   0x08001140   Section        0  mcu_api.o(i.mcu_dp_string_update)
    i.mcu_dp_value_update                    0x080011b4   Section        0  mcu_api.o(i.mcu_dp_value_update)
    i.mcu_get_dp_download_bool               0x0800122c   Section        0  mcu_api.o(i.mcu_get_dp_download_bool)
    i.mcu_get_dp_download_enum               0x08001232   Section        0  mcu_api.o(i.mcu_get_dp_download_enum)
    i.mcu_get_dp_download_value              0x08001238   Section        0  mcu_api.o(i.mcu_get_dp_download_value)
    i.my_memcpy                              0x08001246   Section        0  mcu_api.o(i.my_memcpy)
    i.my_strlen                              0x0800128a   Section        0  mcu_api.o(i.my_strlen)
    i.product_info_update                    0x080012a8   Section        0  system.o(i.product_info_update)
    product_info_update                      0x080012a9   Thumb Code   164  system.o(i.product_info_update)
    i.set_wifi_uart_buffer                   0x08001388   Section        0  system.o(i.set_wifi_uart_buffer)
    i.set_wifi_uart_byte                     0x080013b0   Section        0  system.o(i.set_wifi_uart_byte)
    i.take_byte_rxbuff                       0x080013c0   Section        0  system.o(i.take_byte_rxbuff)
    i.uart_receive_input                     0x080013fc   Section        0  mcu_api.o(i.uart_receive_input)
    i.uart_transmit_output                   0x08001454   Section        0  protocol.o(i.uart_transmit_output)
    i.usart_Init                             0x08001468   Section        0  usart_1.o(i.usart_Init)
    i.wifi_protocol_init                     0x0800147c   Section        0  mcu_api.o(i.wifi_protocol_init)
    i.wifi_test_result                       0x080014a8   Section        0  protocol.o(i.wifi_test_result)
    i.wifi_uart_service                      0x080014b0   Section        0  mcu_api.o(i.wifi_uart_service)
    i.wifi_uart_write_data                   0x080015a8   Section        0  system.o(i.wifi_uart_write_data)
    wifi_uart_write_data                     0x080015a9   Thumb Code    36  system.o(i.wifi_uart_write_data)
    i.wifi_uart_write_frame                  0x080015cc   Section        0  system.o(i.wifi_uart_write_frame)
    i.with_data_rxbuff                       0x08001614   Section        0  system.o(i.with_data_rxbuff)
    i.ws2812_AllShutOff                      0x08001630   Section        0  ws2812.o(i.ws2812_AllShutOff)
    i.ws2812_DMA_Init                        0x08001668   Section        0  ws2812.o(i.ws2812_DMA_Init)
    i.ws2812_GPIO_Init                       0x080016bc   Section        0  ws2812.o(i.ws2812_GPIO_Init)
    i.ws2812_Init                            0x080016e8   Section        0  ws2812.o(i.ws2812_Init)
    i.ws2812_LED_Gray2GRB                    0x08001702   Section        0  ws2812.o(i.ws2812_LED_Gray2GRB)
    i.ws2812_Roll_on_Color_Ring              0x08001754   Section        0  ws2812.o(i.ws2812_Roll_on_Color_Ring)
    i.ws2812_SPI_Init                        0x08001794   Section        0  ws2812.o(i.ws2812_SPI_Init)
    i.ws2812_Send_Data                       0x080017fc   Section        0  ws2812.o(i.ws2812_Send_Data)
    i.ws2812_Set_one_LED_Color               0x08001824   Section        0  ws2812.o(i.ws2812_Set_one_LED_Color)
    .constdata                               0x0800186c   Section       34  protocol.o(.constdata)
    .data                                    0x20000000   Section       20  system_stm32f10x.o(.data)
    .data                                    0x20000014   Section       20  stm32f10x_rcc.o(.data)
    APBAHBPrescTable                         0x20000014   Data          16  stm32f10x_rcc.o(.data)
    ADCPrescTable                            0x20000024   Data           4  stm32f10x_rcc.o(.data)
    .data                                    0x20000028   Section        4  delay.o(.data)
    fac_us                                   0x20000028   Data           1  delay.o(.data)
    fac_ms                                   0x2000002a   Data           2  delay.o(.data)
    .data                                    0x2000002c   Section        2  mcu_api.o(.data)
    rx_in                                    0x2000002c   Data           2  mcu_api.o(.data)
    .data                                    0x20000030   Section       13  system.o(.data)
    mcu_reset_state                          0x2000003c   Data           1  system.o(.data)
    .bss                                     0x20000040   Section       84  ws2812.o(.bss)
    .bss                                     0x20000094   Section      109  system.o(.bss)
    STACK                                    0x20000108   Section     1024  startup_stm32f10x_md.o(STACK)

    Global Symbols

    Symbol Name                              Value     Ov Type        Size  Object(Section)

    BuildAttributes$$THM_ISAv4$P$D$K$B$S$PE$A:L22UL41UL21$X:L11$S22US41US21$IEEE1$IW$USESV6$~STKCKD$USESV7$~SHL$OTIME$ROPI$IEEEJ$EBA8$MICROLIB$REQ8$PRES8$EABIv2 0x00000000   Number         0  anon$$obj.o ABSOLUTE
    __ARM_use_no_argv                        0x00000000   Number         0  main.o ABSOLUTE
    __cpp_initialize__aeabi_                  - Undefined Weak Reference
    __cxa_finalize                            - Undefined Weak Reference
    __decompress                              - Undefined Weak Reference
    _clock_init                               - Undefined Weak Reference
    _microlib_exit                            - Undefined Weak Reference
    __Vectors_Size                           0x000000ec   Number         0  startup_stm32f10x_md.o ABSOLUTE
    __Vectors                                0x08000000   Data           4  startup_stm32f10x_md.o(RESET)
    __Vectors_End                            0x080000ec   Data           0  startup_stm32f10x_md.o(RESET)
    __main                                   0x080000ed   Thumb Code     0  entry.o(.ARM.Collect$$$$00000000)
    _main_stk                                0x080000ed   Thumb Code     0  entry2.o(.ARM.Collect$$$$00000001)
    _main_scatterload                        0x080000f1   Thumb Code     0  entry5.o(.ARM.Collect$$$$00000004)
    __main_after_scatterload                 0x080000f5   Thumb Code     0  entry5.o(.ARM.Collect$$$$00000004)
    _main_clock                              0x080000f5   Thumb Code     0  entry7b.o(.ARM.Collect$$$$00000008)
    _main_cpp_init                           0x080000f5   Thumb Code     0  entry8b.o(.ARM.Collect$$$$0000000A)
    _main_init                               0x080000f5   Thumb Code     0  entry9a.o(.ARM.Collect$$$$0000000B)
    __rt_final_cpp                           0x080000fd   Thumb Code     0  entry10a.o(.ARM.Collect$$$$0000000D)
    __rt_final_exit                          0x080000fd   Thumb Code     0  entry11a.o(.ARM.Collect$$$$0000000F)
    Reset_Handler                            0x08000101   Thumb Code     8  startup_stm32f10x_md.o(.text)
    ADC1_2_IRQHandler                        0x0800011b   Thumb Code     0  startup_stm32f10x_md.o(.text)
    CAN1_RX1_IRQHandler                      0x0800011b   Thumb Code     0  startup_stm32f10x_md.o(.text)
    CAN1_SCE_IRQHandler                      0x0800011b   Thumb Code     0  startup_stm32f10x_md.o(.text)
    DMA1_Channel1_IRQHandler                 0x0800011b   Thumb Code     0  startup_stm32f10x_md.o(.text)
    DMA1_Channel2_IRQHandler                 0x0800011b   Thumb Code     0  startup_stm32f10x_md.o(.text)
    DMA1_Channel3_IRQHandler                 0x0800011b   Thumb Code     0  startup_stm32f10x_md.o(.text)
    DMA1_Channel4_IRQHandler                 0x0800011b   Thumb Code     0  startup_stm32f10x_md.o(.text)
    DMA1_Channel5_IRQHandler                 0x0800011b   Thumb Code     0  startup_stm32f10x_md.o(.text)
    DMA1_Channel6_IRQHandler                 0x0800011b   Thumb Code     0  startup_stm32f10x_md.o(.text)
    DMA1_Channel7_IRQHandler                 0x0800011b   Thumb Code     0  startup_stm32f10x_md.o(.text)
    EXTI0_IRQHandler                         0x0800011b   Thumb Code     0  startup_stm32f10x_md.o(.text)
    EXTI15_10_IRQHandler                     0x0800011b   Thumb Code     0  startup_stm32f10x_md.o(.text)
    EXTI1_IRQHandler                         0x0800011b   Thumb Code     0  startup_stm32f10x_md.o(.text)
    EXTI2_IRQHandler                         0x0800011b   Thumb Code     0  startup_stm32f10x_md.o(.text)
    EXTI3_IRQHandler                         0x0800011b   Thumb Code     0  startup_stm32f10x_md.o(.text)
    EXTI4_IRQHandler                         0x0800011b   Thumb Code     0  startup_stm32f10x_md.o(.text)
    EXTI9_5_IRQHandler                       0x0800011b   Thumb Code     0  startup_stm32f10x_md.o(.text)
    FLASH_IRQHandler                         0x0800011b   Thumb Code     0  startup_stm32f10x_md.o(.text)
    I2C1_ER_IRQHandler                       0x0800011b   Thumb Code     0  startup_stm32f10x_md.o(.text)
    I2C1_EV_IRQHandler                       0x0800011b   Thumb Code     0  startup_stm32f10x_md.o(.text)
    I2C2_ER_IRQHandler                       0x0800011b   Thumb Code     0  startup_stm32f10x_md.o(.text)
    I2C2_EV_IRQHandler                       0x0800011b   Thumb Code     0  startup_stm32f10x_md.o(.text)
    PVD_IRQHandler                           0x0800011b   Thumb Code     0  startup_stm32f10x_md.o(.text)
    RCC_IRQHandler                           0x0800011b   Thumb Code     0  startup_stm32f10x_md.o(.text)
    RTCAlarm_IRQHandler                      0x0800011b   Thumb Code     0  startup_stm32f10x_md.o(.text)
    RTC_IRQHandler                           0x0800011b   Thumb Code     0  startup_stm32f10x_md.o(.text)
    SPI1_IRQHandler                          0x0800011b   Thumb Code     0  startup_stm32f10x_md.o(.text)
    SPI2_IRQHandler                          0x0800011b   Thumb Code     0  startup_stm32f10x_md.o(.text)
    TAMPER_IRQHandler                        0x0800011b   Thumb Code     0  startup_stm32f10x_md.o(.text)
    TIM1_BRK_IRQHandler                      0x0800011b   Thumb Code     0  startup_stm32f10x_md.o(.text)
    TIM1_CC_IRQHandler                       0x0800011b   Thumb Code     0  startup_stm32f10x_md.o(.text)
    TIM1_TRG_COM_IRQHandler                  0x0800011b   Thumb Code     0  startup_stm32f10x_md.o(.text)
    TIM1_UP_IRQHandler                       0x0800011b   Thumb Code     0  startup_stm32f10x_md.o(.text)
    TIM2_IRQHandler                          0x0800011b   Thumb Code     0  startup_stm32f10x_md.o(.text)
    TIM3_IRQHandler                          0x0800011b   Thumb Code     0  startup_stm32f10x_md.o(.text)
    TIM4_IRQHandler                          0x0800011b   Thumb Code     0  startup_stm32f10x_md.o(.text)
    USART2_IRQHandler                        0x0800011b   Thumb Code     0  startup_stm32f10x_md.o(.text)
    USART3_IRQHandler                        0x0800011b   Thumb Code     0  startup_stm32f10x_md.o(.text)
    USBWakeUp_IRQHandler                     0x0800011b   Thumb Code     0  startup_stm32f10x_md.o(.text)
    USB_HP_CAN1_TX_IRQHandler                0x0800011b   Thumb Code     0  startup_stm32f10x_md.o(.text)
    USB_LP_CAN1_RX0_IRQHandler               0x0800011b   Thumb Code     0  startup_stm32f10x_md.o(.text)
    WWDG_IRQHandler                          0x0800011b   Thumb Code     0  startup_stm32f10x_md.o(.text)
    __scatterload                            0x08000125   Thumb Code    28  init.o(.text)
    __scatterload_rt2                        0x08000125   Thumb Code     0  init.o(.text)
    BusFault_Handler                         0x08000149   Thumb Code     4  stm32f10x_it.o(i.BusFault_Handler)
    DMA_ClearFlag                            0x0800014d   Thumb Code    18  stm32f10x_dma.o(i.DMA_ClearFlag)
    DMA_Cmd                                  0x08000169   Thumb Code    24  stm32f10x_dma.o(i.DMA_Cmd)
    DMA_DeInit                               0x08000181   Thumb Code   324  stm32f10x_dma.o(i.DMA_DeInit)
    DMA_Init                                 0x080002cd   Thumb Code    60  stm32f10x_dma.o(i.DMA_Init)
    DMA_SetCurrDataCounter                   0x08000309   Thumb Code     4  stm32f10x_dma.o(i.DMA_SetCurrDataCounter)
    DebugMon_Handler                         0x0800030d   Thumb Code     2  stm32f10x_it.o(i.DebugMon_Handler)
    GPIO_Init                                0x0800030f   Thumb Code   278  stm32f10x_gpio.o(i.GPIO_Init)
    HardFault_Handler                        0x08000425   Thumb Code     4  stm32f10x_it.o(i.HardFault_Handler)
    MemManage_Handler                        0x08000429   Thumb Code     4  stm32f10x_it.o(i.MemManage_Handler)
    NMI_Handler                              0x0800042d   Thumb Code     2  stm32f10x_it.o(i.NMI_Handler)
    NVIC_Init                                0x08000431   Thumb Code   100  misc.o(i.NVIC_Init)
    PendSV_Handler                           0x080004a1   Thumb Code     2  stm32f10x_it.o(i.PendSV_Handler)
    RCC_AHBPeriphClockCmd                    0x080004a5   Thumb Code    26  stm32f10x_rcc.o(i.RCC_AHBPeriphClockCmd)
    RCC_APB2PeriphClockCmd                   0x080004c5   Thumb Code    26  stm32f10x_rcc.o(i.RCC_APB2PeriphClockCmd)
    RCC_GetClocksFreq                        0x080004e5   Thumb Code   192  stm32f10x_rcc.o(i.RCC_GetClocksFreq)
    SPI_Cmd                                  0x080005b9   Thumb Code    24  stm32f10x_spi.o(i.SPI_Cmd)
    SPI_I2S_DMACmd                           0x080005d1   Thumb Code    18  stm32f10x_spi.o(i.SPI_I2S_DMACmd)
    SPI_Init                                 0x080005e3   Thumb Code    60  stm32f10x_spi.o(i.SPI_Init)
    SVC_Handler                              0x0800061f   Thumb Code     2  stm32f10x_it.o(i.SVC_Handler)
    SysTick_CLKSourceConfig                  0x08000709   Thumb Code    40  misc.o(i.SysTick_CLKSourceConfig)
    SysTick_Handler                          0x08000731   Thumb Code     2  stm32f10x_it.o(i.SysTick_Handler)
    SystemInit                               0x08000735   Thumb Code    78  system_stm32f10x.o(i.SystemInit)
    USART1_IRQHandler                        0x08000795   Thumb Code    48  usart_1.o(i.USART1_IRQHandler)
    USART_ClearFlag                          0x080007c9   Thumb Code    18  stm32f10x_usart.o(i.USART_ClearFlag)
    USART_GetITStatus                        0x080007db   Thumb Code    84  stm32f10x_usart.o(i.USART_GetITStatus)
    USART_ITConfig                           0x0800082f   Thumb Code    74  stm32f10x_usart.o(i.USART_ITConfig)
    USART_Init                               0x08000879   Thumb Code   210  stm32f10x_usart.o(i.USART_Init)
    USART_SendData                           0x08000951   Thumb Code     8  stm32f10x_usart.o(i.USART_SendData)
    UsageFault_Handler                       0x08000959   Thumb Code     4  stm32f10x_it.o(i.UsageFault_Handler)
    __scatterload_copy                       0x0800095d   Thumb Code    14  handlers.o(i.__scatterload_copy)
    __scatterload_null                       0x0800096b   Thumb Code     2  handlers.o(i.__scatterload_null)
    __scatterload_zeroinit                   0x0800096d   Thumb Code    14  handlers.o(i.__scatterload_zeroinit)
    __usart_GPIO_Init                        0x0800097d   Thumb Code    62  usart_1.o(i.__usart_GPIO_Init)
    __usart_NVIC_Init                        0x080009c1   Thumb Code    32  usart_1.o(i.__usart_NVIC_Init)
    __usart_USART_Init                       0x080009e1   Thumb Code    54  usart_1.o(i.__usart_USART_Init)
    all_data_update                          0x08000a1d   Thumb Code     2  protocol.o(i.all_data_update)
    byte_to_int                              0x08000a1f   Thumb Code    26  mcu_api.o(i.byte_to_int)
    data_handle                              0x08000a39   Thumb Code   210  system.o(i.data_handle)
    delay_init                               0x08000b69   Thumb Code    50  delay.o(i.delay_init)
    delay_ms                                 0x08000bad   Thumb Code    72  delay.o(i.delay_ms)
    dp_download_handle                       0x08000ce1   Thumb Code   272  protocol.o(i.dp_download_handle)
    get_check_sum                            0x08000f55   Thumb Code    28  system.o(i.get_check_sum)
    get_download_cmd_total                   0x08000f9d   Thumb Code     4  protocol.o(i.get_download_cmd_total)
    main                                     0x08000fe9   Thumb Code    40  main.o(i.main)
    mcu_dp_bool_update                       0x08001011   Thumb Code    96  mcu_api.o(i.mcu_dp_bool_update)
    mcu_dp_enum_update                       0x08001075   Thumb Code    82  mcu_api.o(i.mcu_dp_enum_update)
    mcu_dp_raw_update                        0x080010cd   Thumb Code   112  mcu_api.o(i.mcu_dp_raw_update)
    mcu_dp_string_update                     0x08001141   Thumb Code   112  mcu_api.o(i.mcu_dp_string_update)
    mcu_dp_value_update                      0x080011b5   Thumb Code   116  mcu_api.o(i.mcu_dp_value_update)
    mcu_get_dp_download_bool                 0x0800122d   Thumb Code     6  mcu_api.o(i.mcu_get_dp_download_bool)
    mcu_get_dp_download_enum                 0x08001233   Thumb Code     6  mcu_api.o(i.mcu_get_dp_download_enum)
    mcu_get_dp_download_value                0x08001239   Thumb Code    14  mcu_api.o(i.mcu_get_dp_download_value)
    my_memcpy                                0x08001247   Thumb Code    68  mcu_api.o(i.my_memcpy)
    my_strlen                                0x0800128b   Thumb Code    28  mcu_api.o(i.my_strlen)
    set_wifi_uart_buffer                     0x08001389   Thumb Code    34  system.o(i.set_wifi_uart_buffer)
    set_wifi_uart_byte                       0x080013b1   Thumb Code    12  system.o(i.set_wifi_uart_byte)
    take_byte_rxbuff                         0x080013c1   Thumb Code    46  system.o(i.take_byte_rxbuff)
    uart_receive_input                       0x080013fd   Thumb Code    74  mcu_api.o(i.uart_receive_input)
    uart_transmit_output                     0x08001455   Thumb Code    14  protocol.o(i.uart_transmit_output)
    usart_Init                               0x08001469   Thumb Code    20  usart_1.o(i.usart_Init)
    wifi_protocol_init                       0x0800147d   Thumb Code    24  mcu_api.o(i.wifi_protocol_init)
    wifi_test_result                         0x080014a9   Thumb Code     8  protocol.o(i.wifi_test_result)
    wifi_uart_service                        0x080014b1   Thumb Code   238  mcu_api.o(i.wifi_uart_service)
    wifi_uart_write_frame                    0x080015cd   Thumb Code    68  system.o(i.wifi_uart_write_frame)
    with_data_rxbuff                         0x08001615   Thumb Code    20  system.o(i.with_data_rxbuff)
    ws2812_AllShutOff                        0x08001631   Thumb Code    52  ws2812.o(i.ws2812_AllShutOff)
    ws2812_DMA_Init                          0x08001669   Thumb Code    72  ws2812.o(i.ws2812_DMA_Init)
    ws2812_GPIO_Init                         0x080016bd   Thumb Code    38  ws2812.o(i.ws2812_GPIO_Init)
    ws2812_Init                              0x080016e9   Thumb Code    26  ws2812.o(i.ws2812_Init)
    ws2812_LED_Gray2GRB                      0x08001703   Thumb Code    82  ws2812.o(i.ws2812_LED_Gray2GRB)
    ws2812_Roll_on_Color_Ring                0x08001755   Thumb Code    64  ws2812.o(i.ws2812_Roll_on_Color_Ring)
    ws2812_SPI_Init                          0x08001795   Thumb Code    98  ws2812.o(i.ws2812_SPI_Init)
    ws2812_Send_Data                         0x080017fd   Thumb Code    36  ws2812.o(i.ws2812_Send_Data)
    ws2812_Set_one_LED_Color                 0x08001825   Thumb Code    66  ws2812.o(i.ws2812_Set_one_LED_Color)
    download_cmd                             0x0800186c   Data          34  protocol.o(.constdata)
    Region$$Table$$Base                      0x08001890   Number         0  anon$$obj.o(Region$$Table)
    Region$$Table$$Limit                     0x080018b0   Number         0  anon$$obj.o(Region$$Table)
    SystemCoreClock                          0x20000000   Data           4  system_stm32f10x.o(.data)
    AHBPrescTable                            0x20000004   Data          16  system_stm32f10x.o(.data)
    rx_buf_in                                0x20000030   Data           4  system.o(.data)
    rx_buf_out                               0x20000034   Data           4  system.o(.data)
    stop_update_flag                         0x20000038   Data           1  system.o(.data)
    reset_wifi_flag                          0x20000039   Data           1  system.o(.data)
    set_wifimode_flag                        0x2000003a   Data           1  system.o(.data)
    wifi_work_state                          0x2000003b   Data           1  system.o(.data)
    ws2812_data_buffer                       0x20000040   Data          72  ws2812.o(.bss)
    hsv_color                                0x20000088   Data          12  ws2812.o(.bss)
    wifi_data_process_buf                    0x20000094   Data          31  system.o(.bss)
    wifi_uart_rx_buf                         0x200000b3   Data          23  system.o(.bss)
    wifi_uart_tx_buf                         0x200000ca   Data          55  system.o(.bss)
    __initial_sp                             0x20000508   Data           0  startup_stm32f10x_md.o(STACK)



==============================================================================

Memory Map of the image

  Image Entry point : 0x080000ed

  Load Region LR_IROM1 (Base: 0x08000000, Size: 0x000018f0, Max: 0x00010000, ABSOLUTE)

    Execution Region ER_IROM1 (Base: 0x08000000, Size: 0x000018b0, Max: 0x00010000, ABSOLUTE)

    Base Addr    Size         Type   Attr      Idx    E Section Name        Object

    0x08000000   0x000000ec   Data   RO            3    RESET               startup_stm32f10x_md.o
    0x080000ec   0x00000000   Code   RO         3764  * .ARM.Collect$$$$00000000  mc_w.l(entry.o)
    0x080000ec   0x00000004   Code   RO         3787    .ARM.Collect$$$$00000001  mc_w.l(entry2.o)
    0x080000f0   0x00000004   Code   RO         3790    .ARM.Collect$$$$00000004  mc_w.l(entry5.o)
    0x080000f4   0x00000000   Code   RO         3792    .ARM.Collect$$$$00000008  mc_w.l(entry7b.o)
    0x080000f4   0x00000000   Code   RO         3794    .ARM.Collect$$$$0000000A  mc_w.l(entry8b.o)
    0x080000f4   0x00000008   Code   RO         3795    .ARM.Collect$$$$0000000B  mc_w.l(entry9a.o)
    0x080000fc   0x00000000   Code   RO         3797    .ARM.Collect$$$$0000000D  mc_w.l(entry10a.o)
    0x080000fc   0x00000000   Code   RO         3799    .ARM.Collect$$$$0000000F  mc_w.l(entry11a.o)
    0x080000fc   0x00000004   Code   RO         3788    .ARM.Collect$$$$00002712  mc_w.l(entry2.o)
    0x08000100   0x00000024   Code   RO            4    .text               startup_stm32f10x_md.o
    0x08000124   0x00000024   Code   RO         3810    .text               mc_w.l(init.o)
    0x08000148   0x00000004   Code   RO         3697    i.BusFault_Handler  stm32f10x_it.o
    0x0800014c   0x0000001c   Code   RO          866    i.DMA_ClearFlag     stm32f10x_dma.o
    0x08000168   0x00000018   Code   RO          868    i.DMA_Cmd           stm32f10x_dma.o
    0x08000180   0x0000014c   Code   RO          869    i.DMA_DeInit        stm32f10x_dma.o
    0x080002cc   0x0000003c   Code   RO          874    i.DMA_Init          stm32f10x_dma.o
    0x08000308   0x00000004   Code   RO          875    i.DMA_SetCurrDataCounter  stm32f10x_dma.o
    0x0800030c   0x00000002   Code   RO         3698    i.DebugMon_Handler  stm32f10x_it.o
    0x0800030e   0x00000116   Code   RO         1292    i.GPIO_Init         stm32f10x_gpio.o
    0x08000424   0x00000004   Code   RO         3699    i.HardFault_Handler  stm32f10x_it.o
    0x08000428   0x00000004   Code   RO         3700    i.MemManage_Handler  stm32f10x_it.o
    0x0800042c   0x00000002   Code   RO         3701    i.NMI_Handler       stm32f10x_it.o
    0x0800042e   0x00000002   PAD
    0x08000430   0x00000070   Code   RO          137    i.NVIC_Init         misc.o
    0x080004a0   0x00000002   Code   RO         3702    i.PendSV_Handler    stm32f10x_it.o
    0x080004a2   0x00000002   PAD
    0x080004a4   0x00000020   Code   RO         1707    i.RCC_AHBPeriphClockCmd  stm32f10x_rcc.o
    0x080004c4   0x00000020   Code   RO         1710    i.RCC_APB2PeriphClockCmd  stm32f10x_rcc.o
    0x080004e4   0x000000d4   Code   RO         1718    i.RCC_GetClocksFreq  stm32f10x_rcc.o
    0x080005b8   0x00000018   Code   RO         2187    i.SPI_Cmd           stm32f10x_spi.o
    0x080005d0   0x00000012   Code   RO         2193    i.SPI_I2S_DMACmd    stm32f10x_spi.o
    0x080005e2   0x0000003c   Code   RO         2200    i.SPI_Init          stm32f10x_spi.o
    0x0800061e   0x00000002   Code   RO         3703    i.SVC_Handler       stm32f10x_it.o
    0x08000620   0x00000008   Code   RO           24    i.SetSysClock       system_stm32f10x.o
    0x08000628   0x000000e0   Code   RO           25    i.SetSysClockTo72   system_stm32f10x.o
    0x08000708   0x00000028   Code   RO          141    i.SysTick_CLKSourceConfig  misc.o
    0x08000730   0x00000002   Code   RO         3704    i.SysTick_Handler   stm32f10x_it.o
    0x08000732   0x00000002   PAD
    0x08000734   0x00000060   Code   RO           27    i.SystemInit        system_stm32f10x.o
    0x08000794   0x00000034   Code   RO         3244    i.USART1_IRQHandler  usart_1.o
    0x080007c8   0x00000012   Code   RO         2874    i.USART_ClearFlag   stm32f10x_usart.o
    0x080007da   0x00000054   Code   RO         2882    i.USART_GetITStatus  stm32f10x_usart.o
    0x0800082e   0x0000004a   Code   RO         2884    i.USART_ITConfig    stm32f10x_usart.o
    0x08000878   0x000000d8   Code   RO         2885    i.USART_Init        stm32f10x_usart.o
    0x08000950   0x00000008   Code   RO         2895    i.USART_SendData    stm32f10x_usart.o
    0x08000958   0x00000004   Code   RO         3705    i.UsageFault_Handler  stm32f10x_it.o
    0x0800095c   0x0000000e   Code   RO         3820    i.__scatterload_copy  mc_w.l(handlers.o)
    0x0800096a   0x00000002   Code   RO         3821    i.__scatterload_null  mc_w.l(handlers.o)
    0x0800096c   0x0000000e   Code   RO         3822    i.__scatterload_zeroinit  mc_w.l(handlers.o)
    0x0800097a   0x00000002   PAD
    0x0800097c   0x00000044   Code   RO         3245    i.__usart_GPIO_Init  usart_1.o
    0x080009c0   0x00000020   Code   RO         3246    i.__usart_NVIC_Init  usart_1.o
    0x080009e0   0x0000003c   Code   RO         3247    i.__usart_USART_Init  usart_1.o
    0x08000a1c   0x00000002   Code   RO         3475    i.all_data_update   protocol.o
    0x08000a1e   0x0000001a   Code   RO         3286    i.byte_to_int       mcu_api.o
    0x08000a38   0x000000e4   Code   RO         3599    i.data_handle       system.o
    0x08000b1c   0x0000004c   Code   RO         3600    i.data_point_handle  system.o
    0x08000b68   0x00000044   Code   RO         3108    i.delay_init        delay.o
    0x08000bac   0x0000004c   Code   RO         3109    i.delay_ms          delay.o
    0x08000bf8   0x00000028   Code   RO         3476    i.dp_download_bright_value_handle  protocol.o
    0x08000c20   0x0000001c   Code   RO         3477    i.dp_download_colour_data_handle  protocol.o
    0x08000c3c   0x0000001c   Code   RO         3478    i.dp_download_control_data_handle  protocol.o
    0x08000c58   0x00000028   Code   RO         3479    i.dp_download_countdown_handle  protocol.o
    0x08000c80   0x00000028   Code   RO         3480    i.dp_download_do_not_disturb_handle  protocol.o
    0x08000ca8   0x0000001c   Code   RO         3481    i.dp_download_dreamlight_scene_mode_handle  protocol.o
    0x08000cc4   0x0000001c   Code   RO         3482    i.dp_download_dreamlightmic_music_data_handle  protocol.o
    0x08000ce0   0x00000110   Code   RO         3483    i.dp_download_handle  protocol.o
    0x08000df0   0x00000028   Code   RO         3484    i.dp_download_lightpixel_number_set_handle  protocol.o
    0x08000e18   0x0000001c   Code   RO         3485    i.dp_download_mic_music_data_handle  protocol.o
    0x08000e34   0x0000001c   Code   RO         3486    i.dp_download_music_data_handle  protocol.o
    0x08000e50   0x0000001c   Code   RO         3487    i.dp_download_power_memory_handle  protocol.o
    0x08000e6c   0x0000001c   Code   RO         3488    i.dp_download_scene_data_handle  protocol.o
    0x08000e88   0x0000001c   Code   RO         3489    i.dp_download_sleep_mode_handle  protocol.o
    0x08000ea4   0x00000028   Code   RO         3490    i.dp_download_switch_led_handle  protocol.o
    0x08000ecc   0x00000028   Code   RO         3491    i.dp_download_temp_value_handle  protocol.o
    0x08000ef4   0x0000001c   Code   RO         3492    i.dp_download_wakeup_mode_handle  protocol.o
    0x08000f10   0x00000044   Code   RO         3493    i.dp_download_work_mode_handle  protocol.o
    0x08000f54   0x0000001c   Code   RO         3601    i.get_check_sum     system.o
    0x08000f70   0x0000002c   Code   RO         3602    i.get_dowmload_dpid_index  system.o
    0x08000f9c   0x00000004   Code   RO         3494    i.get_download_cmd_total  protocol.o
    0x08000fa0   0x00000010   Code   RO         3603    i.get_mcu_wifi_mode  system.o
    0x08000fb0   0x00000038   Code   RO         3604    i.heat_beat_check   system.o
    0x08000fe8   0x00000028   Code   RO         3685    i.main              main.o
    0x08001010   0x00000064   Code   RO         3289    i.mcu_dp_bool_update  mcu_api.o
    0x08001074   0x00000058   Code   RO         3290    i.mcu_dp_enum_update  mcu_api.o
    0x080010cc   0x00000074   Code   RO         3292    i.mcu_dp_raw_update  mcu_api.o
    0x08001140   0x00000074   Code   RO         3293    i.mcu_dp_string_update  mcu_api.o
    0x080011b4   0x00000078   Code   RO         3294    i.mcu_dp_value_update  mcu_api.o
    0x0800122c   0x00000006   Code   RO         3295    i.mcu_get_dp_download_bool  mcu_api.o
    0x08001232   0x00000006   Code   RO         3296    i.mcu_get_dp_download_enum  mcu_api.o
    0x08001238   0x0000000e   Code   RO         3297    i.mcu_get_dp_download_value  mcu_api.o
    0x08001246   0x00000044   Code   RO         3304    i.my_memcpy         mcu_api.o
    0x0800128a   0x0000001c   Code   RO         3308    i.my_strlen         mcu_api.o
    0x080012a6   0x00000002   PAD
    0x080012a8   0x000000e0   Code   RO         3605    i.product_info_update  system.o
    0x08001388   0x00000028   Code   RO         3606    i.set_wifi_uart_buffer  system.o
    0x080013b0   0x00000010   Code   RO         3607    i.set_wifi_uart_byte  system.o
    0x080013c0   0x0000003c   Code   RO         3608    i.take_byte_rxbuff  system.o
    0x080013fc   0x00000058   Code   RO         3310    i.uart_receive_input  mcu_api.o
    0x08001454   0x00000014   Code   RO         3495    i.uart_transmit_output  protocol.o
    0x08001468   0x00000014   Code   RO         3248    i.usart_Init        usart_1.o
    0x0800147c   0x0000002c   Code   RO         3311    i.wifi_protocol_init  mcu_api.o
    0x080014a8   0x00000008   Code   RO         3496    i.wifi_test_result  protocol.o
    0x080014b0   0x000000f8   Code   RO         3312    i.wifi_uart_service  mcu_api.o
    0x080015a8   0x00000024   Code   RO         3609    i.wifi_uart_write_data  system.o
    0x080015cc   0x00000048   Code   RO         3610    i.wifi_uart_write_frame  system.o
    0x08001614   0x0000001c   Code   RO         3611    i.with_data_rxbuff  system.o
    0x08001630   0x00000038   Code   RO         3142    i.ws2812_AllShutOff  ws2812.o
    0x08001668   0x00000054   Code   RO         3144    i.ws2812_DMA_Init   ws2812.o
    0x080016bc   0x0000002c   Code   RO         3145    i.ws2812_GPIO_Init  ws2812.o
    0x080016e8   0x0000001a   Code   RO         3146    i.ws2812_Init       ws2812.o
    0x08001702   0x00000052   Code   RO         3147    i.ws2812_LED_Gray2GRB  ws2812.o
    0x08001754   0x00000040   Code   RO         3148    i.ws2812_Roll_on_Color_Ring  ws2812.o
    0x08001794   0x00000068   Code   RO         3149    i.ws2812_SPI_Init   ws2812.o
    0x080017fc   0x00000028   Code   RO         3150    i.ws2812_Send_Data  ws2812.o
    0x08001824   0x00000048   Code   RO         3151    i.ws2812_Set_one_LED_Color  ws2812.o
    0x0800186c   0x00000022   Data   RO         3497    .constdata          protocol.o
    0x0800188e   0x00000002   PAD
    0x08001890   0x00000020   Data   RO         3818    Region$$Table       anon$$obj.o


    Execution Region RW_IRAM1 (Base: 0x20000000, Size: 0x00000508, Max: 0x00005000, ABSOLUTE)

    Base Addr    Size         Type   Attr      Idx    E Section Name        Object

    0x20000000   0x00000014   Data   RW           28    .data               system_stm32f10x.o
    0x20000014   0x00000014   Data   RW         1738    .data               stm32f10x_rcc.o
    0x20000028   0x00000004   Data   RW         3111    .data               delay.o
    0x2000002c   0x00000002   Data   RW         3313    .data               mcu_api.o
    0x2000002e   0x00000002   PAD
    0x20000030   0x0000000d   Data   RW         3613    .data               system.o
    0x2000003d   0x00000003   PAD
    0x20000040   0x00000054   Zero   RW         3152    .bss                ws2812.o
    0x20000094   0x0000006d   Zero   RW         3612    .bss                system.o
    0x20000101   0x00000007   PAD
    0x20000108   0x00000400   Zero   RW            1    STACK               startup_stm32f10x_md.o


==============================================================================

Image component sizes


      Code (inc. data)   RO Data    RW Data    ZI Data      Debug   Object Name

         0          0          0          0          0       4496   core_cm3.o
       144         22          0          4          0       1152   delay.o
        40          0          0          0          0        447   main.o
      1068         66          0          2          0      10345   mcu_api.o
       152         12          0          0          0       1670   misc.o
       894         40         34          0          0      14689   protocol.o
        36          8        236          0       1024        856   startup_stm32f10x_md.o
       448         18          0          0          0       4727   stm32f10x_dma.o
       278          0          0          0          0       2040   stm32f10x_gpio.o
        26          0          0          0          0       3802   stm32f10x_it.o
       276         32          0         20          0       4605   stm32f10x_rcc.o
       102          0          0          0          0       2882   stm32f10x_spi.o
       400          6          0          0          0       5189   stm32f10x_usart.o
       924        146          0         13        109       9786   system.o
       328         28          0         20          0     245833   system_stm32f10x.o
       232         16          0          0          0       2554   usart_1.o
       572         38          0          0         84       6158   ws2812.o

    ----------------------------------------------------------------------
      5928        432        304         64       1224     321231   Object Totals
         0          0         32          0          0          0   (incl. Generated)
         8          0          2          5          7          0   (incl. Padding)

    ----------------------------------------------------------------------

      Code (inc. data)   RO Data    RW Data    ZI Data      Debug   Library Member Name

         0          0          0          0          0          0   entry.o
         0          0          0          0          0          0   entry10a.o
         0          0          0          0          0          0   entry11a.o
         8          4          0          0          0          0   entry2.o
         4          0          0          0          0          0   entry5.o
         0          0          0          0          0          0   entry7b.o
         0          0          0          0          0          0   entry8b.o
         8          4          0          0          0          0   entry9a.o
        30          0          0          0          0          0   handlers.o
        36          8          0          0          0         68   init.o

    ----------------------------------------------------------------------
        88         16          0          0          0         68   Library Totals
         2          0          0          0          0          0   (incl. Padding)

    ----------------------------------------------------------------------

      Code (inc. data)   RO Data    RW Data    ZI Data      Debug   Library Name

        86         16          0          0          0         68   mc_w.l

    ----------------------------------------------------------------------
        88         16          0          0          0         68   Library Totals

    ----------------------------------------------------------------------

==============================================================================


      Code (inc. data)   RO Data    RW Data    ZI Data      Debug   

      6016        448        304         64       1224     316667   Grand Totals
      6016        448        304         64       1224     316667   ELF Image Totals
      6016        448        304         64          0          0   ROM Totals

==============================================================================

    Total RO  Size (Code + RO Data)                 6320 (   6.17kB)
    Total RW  Size (RW Data + ZI Data)              1288 (   1.26kB)
    Total ROM Size (Code + RO Data + RW Data)       6384 (   6.23kB)

==============================================================================

