:020000040800F2
:1000000008050020010100082D040008250400084F
:1000100029040008490100085909000800000000EF
:100020000000000000000000000000001F060008A3
:100030000D03000800000000A104000831070008BB
:100040001B0100081B0100081B0100081B01000820
:100050001B0100081B0100081B0100081B01000810
:100060001B0100081B0100081B0100081B01000800
:100070001B0100081B0100081B0100081B010008F0
:100080001B0100081B0100081B0100081B010008E0
:100090001B0100081B0100081B0100081B010008D0
:1000A0001B0100081B0100081B0100081B010008C0
:1000B0001B0100081B0100081B0100081B010008B0
:1000C0001B0100081B0100081B0100081B010008A0
:1000D0001B010008950700081B0100081B01000810
:1000E0001B0100081B0100081B010008DFF80CD0F1
:1000F00000F018F800480047E90F00080805002044
:100100000648804706480047FEE7FEE7FEE7FEE7B1
:10011000FEE7FEE7FEE7FEE7FEE7FEE7350700083D
:10012000ED000008064C074D06E0E06840F00103D2
:1001300094E8070098471034AC42F6D3FFF7DAFF93
:1001400090180008B018000800BFFEE700F08051CA
:1001500011B10349086001E002494860704700009E
:10016000040402400000024021B1026842F0010292
:10017000026004E002684FF6FE731A4002607047A6
:1001800001684FF6FE72114001600021016041607C
:100190008160C1604B49884208D14A4908394968A1
:1001A00041F00F01474A083A51608AE0454914314D
:1001B000884208D143490839496841F0F001414A71
:1001C000083A51607DE03F492831884208D13D49D5
:1001D0000839496841F470613A4A083A516070E060
:1001E00038493C31884208D136490839496841F4D8
:1001F0007041344A083A516063E0324950318842D4
:1002000008D130490839496841F470212D4A083A2B
:10021000516056E02B496431884208D12949083998
:10022000496841F47001274A083A516049E025497C
:100230007831884208D123490839496841F0706112
:10024000204A083A51603CE01F49884206D1011F0C
:10025000096841F00F01021F116032E01A491431A0
:10026000884208D11849091F096841F0F001164A6F
:10027000121F116025E014492831884208D1124923
:10028000091F096841F470610F4A121F116018E0DC
:100290000D493C31884208D10B49091F096841F4D6
:1002A0007041094A121F11600BE007495031884222
:1002B00007D10549091F096841F47021024A121F3C
:1002C00011607047080002400804024010B5002287
:1002D000026847F6F0739A430C6A8B6823430C69F3
:1002E00023434C6923438C692343CC6923434C6AE1
:1002F00023438C6A23431A430260CB6843600B6834
:1003000083604B68C36010BD4160704770472DE942
:10031000F04102460025002600200023002400278B
:1003200091F803C00CF00F0591F803C00CF0100C0D
:10033000BCF1000F03D091F802C04CEA050591F81A
:1003400000C0BCF1000F31D0146800202BE04FF04A
:10035000010C0CFA00F3B1F800C00CEA03069E424F
:1003600020D183004FF00F0C0CFA03F7BC4305FAC1
:1003700003FC4CEA040491F803C0BCF1280F06D139
:100380004FF0010C0CFA00FCC2F814C00AE091F81E
:1003900003C0BCF1480F05D14FF0010C0CFA00FC72
:1003A000C2F810C0401C0828D1D31460B1F800C0B6
:1003B000BCF1FF0F34DD546800202EE000F1080C82
:1003C0004FF0010808FA0CF3B1F800C00CEA03067C
:1003D0009E4221D183004FF00F0C0CFA03F7BC436F
:1003E00005FA03FC4CEA040491F803C0BCF1280FA1
:1003F00005D100F1080C08FA0CF8C2F8148091F845
:1004000003C0BCF1480F07D100F1080C4FF0010800
:1004100008FA0CF8C2F81080401C0828CED35460AB
:10042000BDE8F08100BFFEE700BFFEE770470000B7
:1004300070B5002100230F22C47804B3154C246842
:1004400004F4E064C4F5E064210AC1F10403CA4085
:10045000447804FA03F184781440214309010E4CD6
:100460000678A155047804F01F050124AC400578F6
:100470006D11AD0005F1E025C5F8004109E00478F3
:1004800004F01F050124AC40044D0678761145F8B0
:10049000264070BD0CED00E000E400E080E100E0EB
:1004A0007047000029B1064A52690243044B5A6161
:1004B00004E0034A52698243014B5A6170470000CD
:1004C0000010024029B1064A92690243044B9A6126
:1004D00004E0034A92698243014B9A61704700002D
:1004E0000010024030B500210022002400232D4DD1
:1004F0006D6805F00C0121B1042905D0082923D12C
:1005000005E0294D056022E0274D05601FE0254DDF
:100510006D6805F47012234D6D6805F48034022572
:1005200005EB92421CB9214D554305600BE01D4D72
:100530006D6805F400351DB11C4D5543056002E0A2
:10054000194D5543056002E0174D056000BF00BF1F
:10055000144D6D6805F0F0010909154D6B5C0568D7
:10056000DD4045600F4D6D6805F4E061090A104DEE
:100570006B5C4568DD4085600A4D6D6805F460512F
:10058000C90A0B4D6B5C4568DD40C560054D6D6863
:1005900005F44041890B074D6B5CC568B5FBF3F56D
:1005A000056130BD0010024000127A0000093D00D4
:1005B000140000202400002021B1028842F04002F3
:1005C000028004E002884FF6BF731A400280704731
:1005D0001AB183880B43838002E083888B43838036
:1005E000704710B50022028802F441520B884C88F3
:1005F00023438C882343CC8823430C8923434C8991
:1006000023438C892343CC8923431A430280838B61
:100610004FF2FF74234083830B8A038210BD70471F
:1006200010B500F001F810BD0CB50020019000904D
:100630003348006840F480303149086000BF3048DA
:10064000006800F4003000900198401C0190009870
:1006500018B90198B0F5A06FF1D12948006800F4ED
:10066000003010B10120009001E0002000900098BF
:10067000012843D12348006840F010002149086058
:100680000846006820F0030008600846006840F053
:10069000020008601A4840681949486008464068E6
:1006A00048600846406840F48060486008464068FA
:1006B00020F47C1048600846406840F4E810486028
:1006C0000846006840F08070086000BF0C48006871
:1006D00000F000700028F9D00948406820F00300BD
:1006E000074948600846406840F00200486000BF83
:1006F0000348406800F00C000828F9D10CBD000048
:100700000010024000200240042808D14FF0E021F0
:10071000096941F004014FF0E022116107E04FF058
:10072000E021096921F004014FF0E02211617047D6
:100730007047000010B51348006840F001001149EF
:10074000086008464068104908400E49486008465D
:1007500000680E4908400B4908600846006820F40C
:10076000802008600846406820F4FE0048604FF48E
:100770001F008860FFF754FF4FF0006004490860D5
:1007800010BD0000001002400000FFF8FFFFF6FE61
:1007900008ED00E010B5002440F22551094800F0B2
:1007A0001CF808490988084058B10648001D00880F
:1007B000C4B2204600F022FE40F22551014800F06C
:1007C00003F810BD0038014001F40072B2F5007F5B
:1007D00000D100BFCA430280704770B502460024B2
:1007E00000230025002040F66A16B14200D100BF68
:1007F000C1F3421501F01F03012606FA03F3012D90
:1008000002D19689334006E0022D02D1168A334088
:1008100001E0968A33400C12012606FA04F4168889
:10082000344013B10CB1012000E0002070BDF0B5E0
:100830000346002400260025002040F66A17B9422E
:1008400000D100BF1846C1F3421401F01F06012772
:1008500007FA06F5012C01D10C3004E0022C01D17D
:10086000103000E014301AB107682F43076002E02F
:100870000768AF430760F0BD2DE9F04786B0054635
:100880000E460024A24600BFA1460027B08900B151
:1008900000BF2F462C8A4CF6FF700440F0880443BA
:1008A0002C82AC894EF6F3100440B088318908439D
:1008B000718908430443AC81AC8A4FF6FF40044081
:1008C000B0890443AC8201A8FFF70CFE1F488742A1
:1008D00002D1DDF810A001E0DDF80CA0A88900F439
:1008E000004040B10AEBCA0000EB0A103168490031
:1008F000B0FBF1F807E00AEBCA0000EB0A10316820
:100900008900B0FBF1F86420B8FBF0F00401200985
:10091000642101FB1089A88900F4004040B1322015
:1009200000EBC900B0FBF1F000F00700044308E061
:10093000322000EB09106421B0FBF1F000F00F0051
:1009400004432C8106B0BDE8F08700000038014068
:10095000C1F308028280704700BFFEE702E008C8CA
:10096000121F08C1002AFAD170477047002001E029
:1009700001C1121F002AFBD17047000008B50121F8
:100980000420FFF79FFD4FF40070ADF80000032036
:100990008DF8020018208DF8030069460748FFF71C
:1009A000B6FC4FF48060ADF8000004208DF8030021
:1009B00069460248FFF7ABFC08BD00000008014093
:1009C00008B525208DF8000003208DF801008DF872
:1009D000020001208DF803006846FFF729FD08BDDD
:1009E0001FB5044600940020ADF80C000C20ADF8B3
:1009F0000A000020ADF80800ADF80600ADF80400CC
:100A000069460548FFF738FF012240F225510248A8
:100A1000FFF70DFF1FBD0000003801407047014681
:100A20000020087800024A78104300028A781043B8
:100A30000002CA78104370472DE9F05F044633493D
:100A4000E01C11F80080B8F10F0F5AD2DFE808F06F
:100A5000080B0E111C2024594A59595959594D0057
:100A600000F0A6FA4EE000F01FFC4BE000F098FA10
:100A700048E02649A01D085C254908700022032192
:100A8000084600F0A3FD3DE001202249087039E04E
:100A900001202149087035E01C49601D095C1B4A92
:100AA000201D105C41EA0027002518E0A01D284405
:100AB000801C1649085C4FF6FF7101EA0026A01D54
:100AC0002844C01C1149085C304486B22144891D69
:100AD000481900F023F88346301D284485B2BD42F2
:100AE000E4DB0FE0FFF79AFF0CE00849A01D11F8C6
:100AF0000090E01D11F800A05146484600F0D4FCDB
:100B000000E000BF00BFBDE8F09F0000940000209F
:100B10003B000020390000203A0000202DE9F0477A
:100B20000446267894F80180A0784FF6FF7101EA18
:100B30000025E078284485B2304600F019FA0746CF
:100B4000084800EB47004078404502D00020BDE84F
:100B5000F0872A46211D304600F0C2F881464846FB
:100B6000F5E700006C18000810B56FF00400FFF7FF
:100B7000CBFD0A4800680A49B0FBF1F0094908704A
:100B80000846007800EB4001C1EBC0104FF6FF7142
:100B900001EAC0000449088010BD000000000020E8
:100BA00000127A00280000202A0000200146114A85
:100BB00012884A434FF0E0235A6100229A611A4694
:100BC000126942F001021A6100BF4FF0E022106981
:100BD00000F001021AB100F48032002AF5D04FF083
:100BE000E022126922F001024FF0E0231A61002294
:100BF0009A6170472A0000202DE9F04104460D4615
:100C00002946204600F018FB07463946162000F01A
:100C1000D1FA0646012E01D1BDE8F0810020FBE7A4
:100C200070B504460D462A462146182000F088FA81
:100C30000646012E00D170BD0020FCE770B50446C9
:100C40000D462A4621461C2000F07AFA0646012E5F
:100C500000D170BD0020FCE72DE9F04104460D46AF
:100C60002946204600F0E8FA074639461A2000F0E7
:100C7000A1FA0646012E01D1BDE8F0810020FBE774
:100C80002DE9F04104460D462946204600F0CEFAF3
:100C900007463946222000F0BBF90646012E01D155
:100CA000BDE8F0810020FBE770B504460D462A46FA
:100CB0002146332000F00AFA0646012E00D170BD0D
:100CC0000020FCE770B504460D462A462146342034
:100CD00000F0FCF90646012E00D170BD0020FCE7B3
:100CE0002DE9F04105460E461746A5F114002228CD
:100CF00079D2DFE800F011171D23292F353B417809
:100D000078474D5359787878787878785F7878781C
:100D10007878787878656B723946304600F0C2F89A
:100D2000044661E03946304600F0F2F804465BE0E4
:100D300039463046FFF760FF044655E039463046F5
:100D400000F0C4F804464FE039463046FFF768FF2C
:100D5000044649E03946304600F088F8044643E04E
:100D600039463046FFF778FF04463DE039463046C5
:100D700000F060F8044637E039463046FFF75EFF82
:100D8000044631E03946304600F07EF804462BE058
:100D90003946304600F0AEF8044625E03946304684
:100DA00000F056F804461FE039463046FFF768FF6A
:100DB000044619E03946304600F02EF8044613E0A8
:100DC00039463046FFF770FF04460DE0394630469D
:100DD000FFF778FF044607E005E03946304600F0AB
:100DE00007F8044600E000BF00BF2046BDE8F081E0
:100DF0002DE9F04104460D462946204600F01CFA34
:100E000007463946352000F0D5F90646012E01D1B6
:100E1000BDE8F0810020FBE770B504460D462A4688
:100E200021462A2000F08CF90646012E00D170BD23
:100E30000020FCE770B504460D462A4621461B20DB
:100E400000F07EF90646012E00D170BD0020FCE7BF
:100E500070B504460D462A462146212000F036F999
:100E60000646012E00D170BD0020FCE770B5044697
:100E70000D462A462146192000F062F90646012E49
:100E800000D170BD0020FCE770B504460D462A462F
:100E900021461F2000F01AF90646012E00D170BD30
:100EA0000020FCE72DE9F04104460D462946204686
:100EB00000F0BCF907463946142000F0A9F80646B0
:100EC000012E01D1BDE8F0810020FBE72DE9F041C2
:100ED00004460D462946204600F0AEF9074639463D
:100EE000172000F067F90646012E01D1BDE8F08118
:100EF0000020FBE770B504460D462A462146202017
:100F000000F0E4F80646012E00D170BD0020FCE799
:100F10002DE9F04106460F463946304600F089F982
:100F2000054635B1012D05D0022D04D0032D04D185
:100F300002E003E002E001E000E000BF00BF29465C
:100F4000152000F097F80446012C01D1BDE8F0818E
:100F50000020FBE730B502460020002305E012F830
:100F6000015B2C18E0B25C1CA3B28B42F7DB30BDF6
:100F700070B5054600F012F80646002407E0064862
:100F800010F81400A84200D103E0601CC4B2B442BF
:100F9000F5DB00BF204670BD6C18000811207047BB
:100FA00010B5002422460321022000F00FFB10BDE3
:100FB00010B500240B48007840B90021204600F00D
:100FC000F7F9C4B201200749087004E00121204666
:100FD00000F0EEF9C4B222460321002000F0F6FA38
:100FE00010BD00003C000020FFF7BEFD4FF4E130D3
:100FF00000F03AFA00F042FA00F076FB07E000F069
:1010000057FA142000F0A6FB6420FFF7CFFDF6E7A7
:1010100070B504460D46002615480078012800D119
:1010200070BD2146304600F0C3F906460121304626
:1010300000F0BEF906460021304600F0B9F9064638
:101040000121304600F0B4F906462DB900213046A2
:1010500000F0AEF9064604E00121304600F0A8F9A0
:10106000064632460321072000F0B0FA0120D7E7F8
:101070003800002070B504460E460025124800785E
:10108000012800D170BD2146284600F091F905469F
:101090000421284600F08CF905460021284600F07E
:1010A00087F905460121284600F082F905463146B8
:1010B000284600F07DF905462A460321072000F066
:1010C00085FA0120DEE70000380000202DE9F0411C
:1010D000064688461446002718480078012801D1A2
:1010E000BDE8F0813146384600F062F9074600213C
:1010F000384600F05DF907462546E01704EB10601E
:10110000C0F30721384600F053F90746E01704EB17
:1011100010600012A4EB0020C1B2384600F048F97C
:10112000074622464146384600F02EF907463A4621
:101130000321072000F04AFA0120D1E738000020FF
:101140002DE9F041064688461446002718480078E5
:10115000012801D1BDE8F0813146384600F028F978
:1011600007460321384600F023F907462546E017D5
:1011700004EB1060C0F30721384600F019F9074668
:10118000E01704EB10600012A4EB0020C1B2384657
:1011900000F00EF9074622464146384600F0F4F8C2
:1011A00007463A460321072000F010FA0120D1E754
:1011B0003800002070B505460C4600261A48007815
:1011C000012800D170BD2946304600F0F1F80646EE
:1011D0000221304600F0ECF806460021304600F0CF
:1011E000E7F806460421304600F0E2F80646210EF4
:1011F000304600F0DDF80646C4F30741304600F003
:10120000D7F80646C4F30721304600F0D1F8064669
:10121000E1B2304600F0CCF8064632460321072002
:1012200000F0D4F90120CDE7380000200246107804
:10123000704702461078704710B503460C461846B2
:10124000FFF7EDFB10BDF0B505460E4613462A46E6
:10125000344605B10EB90020F0BDA24202D9E01813
:10126000904208D2002103E0605C5054481C81B2D7
:101270009942F9DB07E0194603E0481E275C175442
:1012800081B20029F9DC2846E6E70146002209B9C7
:1012900000207047002200E0521C11F8013B002B97
:1012A000FAD11046F5E700003EB50024002000907A
:1012B0000190029025A0FFF7E8FF85B22A4623A1FE
:1012C000204600F061F8C4B222A0FFF7DEFF85B22D
:1012D0002A4620A1204600F057F8C4B222A0FFF70A
:1012E000D4FF85B22A4620A1204600F04DF8C4B2B2
:1012F0001FA0FFF7CAFF85B22A461DA1204600F0B5
:1013000043F8C4B21CA0FFF7C0FF85B22A461AA159
:10131000204600F039F8C4B219A0FFF7B6FF85B235
:101320002A4617A1204600F02FF8C4B215A0FFF7F7
:10133000ACFF85B22A4613A1204600F025F8C4B2BE
:1013400022460321012000F041F93EBD7B2270229C
:101350003A220000646A6677637A707365616C395B
:10136000747A6C6900000000222C2276223A220056
:10137000312E302E30000000222C226D223A000047
:10138000320000007D0000002DE9F04104460E46C9
:101390001546064807192A4631463846FFF753FFD7
:1013A000601984B22046BDE8F0810000D000002022
:1013B000024B1A181170431C98B27047D0000020DD
:1013C0000B4909680B4A126891420FD008490A6814
:1013D00009498A4202D31739054A1160044909684C
:1013E000087803490968491C014A116070470000E8
:1013F0003400002030000020CA0000201249096893
:10140000124A1268891A01291CD0104909680E4A2B
:101410001268914206D90D4909680B4A1268891A67
:1014200017290FD209490A6809498A4202D3173994
:10143000064A116005490968087004490968491C91
:10144000024A116070470000340000203000002084
:10145000CA00002010B5044621460248FFF778FA7A
:1014600010BD00000038014010B50446FFF786FAB1
:101470002046FFF7B5FAFFF7A3FA10BD0548064965
:10148000086006490860002005490870FF200549EA
:1014900008707047B30000203000002034000020A6
:1014A000380000203B00002008B901B100BF7047A0
:1014B00070B50024002509E0FFF782FF38490A884B
:1014C0000988491C364B19803649885434480088AD
:1014D0001F2803D200F09EF80028EDDC3048008879
:1014E000072800DA70BD42E02E48005D552802D082
:1014F000601C84B23BE02B49601C085CAA2802D027
:10150000601C84B233E02749A01C085C10B1A01C09
:1015100084B22CE02349201D085C4FF6FF7101EADC
:1015200000252049601D085CC01D284485B2262D79
:1015300002D9E01C84B21AE019480088001BA842B6
:1015400000DA19E06A1E91B2164A1019FFF702FD7F
:101550006119491E134A515C884202D0E01C84B2D2
:1015600005E02046FFF768FA601984B200BF0C4816
:101570000088001B0728B7DA00BF09480088001B55
:101580000749088008460088002806DD054801193B
:10159000034802880348FFF756FE00BFA2E7000099
:1015A0002C0000209400002070B504460D4604B1C4
:1015B00005B970BD03E02078FFF74CFF641C2800DC
:1015C000A5F101018DB2F6D100BFF2E72DE9F0419E
:1015D00005460E461446002755200D490870AA20DE
:1015E000487008468670C570201208714C71E01D65
:1015F00084B2601E81B20648FFF7ACFC0746601E4D
:1016000003490F5421460248FFF7CEFFBDE8F081A1
:10161000CA0000200448006804490968884201D0D3
:10162000012070470020FCE730000020340000203B
:1016300070B500240EE0002508E0E02004EB440132
:10164000084A02EBC1014855681CC5B2182DF4DBED
:10165000601C84B2032CEEDB00F0D0F81E20FFF7F4
:10166000A5FA70BD4000002000B58BB001210846EE
:10167000FEF718FF0E48FEF783FD0E4800900E4857
:1016800001901020029048200390002004908020B8
:10169000059000200690079008904FF48050099024
:1016A00000200A9069460248FEF710FE0BB000BD0C
:1016B000300002400C3001404000002008B50121FC
:1016C0000420FEF7FFFE8020ADF8000018208DF802
:1016D000030003208DF8020069460248FEF717FE5A
:1016E00008BD00000008014010B5FFF7E7FF00F05B
:1016F00051F8FFF7B9FFFFF79BFF1E20FFF756FADF
:1017000010BD0146C1F1FF01552908DA01EB410086
:1017100001EB4102C2F1FF0240EA02207047AA2910
:101720000BDAA1F15500C1B201EB4100C0F1FF009D
:1017300001EB410240EA0240F0E7A1F1AA00C1B288
:1017400001EB4100C0F1FF00000401EB410240EA5F
:101750000220E3E72DE9F04106460024002500BF02
:1017600014E0002509E02046FFF7CBFF0746394685
:10177000284600F057F8681C85B2032DF3DB00F013
:101780003DF83046FFF712FA601CC4B2FF2CE8DDCA
:10179000BDE8F08100B585B001210803FEF792FE97
:1017A0004FF44040ADF800004FF48270ADF80200F5
:1017B0000020ADF80400ADF806000120ADF80800E7
:1017C0004002ADF80A001020ADF80C000020ADF882
:1017D0000E000720ADF8100069460748FEF701FF2C
:1017E00001210548FEF7E8FE012202210248FEF72A
:1017F000EFFE05B000BD00000030014010B5002133
:101800000748FEF7B1FC4FF40070FEF79FFC48213B
:101810000348FEF779FD01210148FEF7A5FC10BD44
:101820003000024070B50A4600214FF4000303283F
:1018300018DA00BF14E002EA03043CB1F82400EB1C
:101840004005094E06EBC5056C5406E0E02400EBAC
:101850004005054E06EBC5056C545B084C1CE1B217
:101860001829E8DB70BD00004000002014011504B9
:1018700016021702180319031A021B031C031F0088
:101880002000210022012A03330034003502000029
:10189000B018000800000020400000005C090008AB
:1018A000F018000840000020C80400006C0900087F
:1018B00000A24A040000000000000000010203042E
:1018C00006070809000000000102030401020304E6
:1018D00006070809020406080000000000000000D6
:1018E00000000000000000000000000000000000F8
:04000005080000ED02
:00000001FF
